{
  "contractName": "Bridge",
  "abi": [
    {
      "inputs": [
        {
          "internalType": "uint32",
          "name": "chain_id",
          "type": "uint32"
        }
      ],
      "stateMutability": "nonpayable",
      "type": "constructor"
    },
    {
      "anonymous": false,
      "inputs": [
        {
          "indexed": false,
          "internalType": "uint256",
          "name": "l1token",
          "type": "uint256"
        },
        {
          "indexed": false,
          "internalType": "uint256",
          "name": "l2account",
          "type": "uint256"
        },
        {
          "indexed": false,
          "internalType": "uint256",
          "name": "amount",
          "type": "uint256"
        },
        {
          "indexed": false,
          "internalType": "uint256",
          "name": "nonce",
          "type": "uint256"
        }
      ],
      "name": "Deposit",
      "type": "event"
    },
    {
      "anonymous": false,
      "inputs": [
        {
          "indexed": false,
          "internalType": "uint256",
          "name": "l2account",
          "type": "uint256"
        },
        {
          "indexed": false,
          "internalType": "uint256",
          "name": "rid",
          "type": "uint256"
        }
      ],
      "name": "SwapAck",
      "type": "event"
    },
    {
      "anonymous": false,
      "inputs": [
        {
          "indexed": false,
          "internalType": "uint256",
          "name": "l1account",
          "type": "uint256"
        },
        {
          "indexed": false,
          "internalType": "uint256",
          "name": "l2account",
          "type": "uint256"
        },
        {
          "indexed": false,
          "internalType": "uint256",
          "name": "amount",
          "type": "uint256"
        },
        {
          "indexed": false,
          "internalType": "uint256",
          "name": "nonce",
          "type": "uint256"
        }
      ],
      "name": "WithDraw",
      "type": "event"
    },
    {
      "inputs": [],
      "name": "getBridgeInfo",
      "outputs": [
        {
          "components": [
            {
              "internalType": "uint128",
              "name": "chain_id",
              "type": "uint128"
            },
            {
              "internalType": "uint32",
              "name": "amount_token",
              "type": "uint32"
            },
            {
              "internalType": "uint32",
              "name": "amount_pool",
              "type": "uint32"
            },
            {
              "internalType": "address",
              "name": "owner",
              "type": "address"
            },
            {
              "internalType": "uint256",
              "name": "merkle_root",
              "type": "uint256"
            },
            {
              "internalType": "uint256",
              "name": "rid",
              "type": "uint256"
            }
          ],
          "internalType": "struct BridgeInfo",
          "name": "",
          "type": "tuple"
        }
      ],
      "stateMutability": "view",
      "type": "function",
      "constant": true
    },
    {
      "inputs": [
        {
          "internalType": "uint256",
          "name": "token",
          "type": "uint256"
        }
      ],
      "name": "addToken",
      "outputs": [
        {
          "internalType": "uint32",
          "name": "",
          "type": "uint32"
        }
      ],
      "stateMutability": "nonpayable",
      "type": "function"
    },
    {
      "inputs": [
        {
          "internalType": "uint128",
          "name": "tidx",
          "type": "uint128"
        }
      ],
      "name": "getToken",
      "outputs": [
        {
          "components": [
            {
              "internalType": "uint256",
              "name": "token_uid",
              "type": "uint256"
            }
          ],
          "internalType": "struct TokenInfo",
          "name": "",
          "type": "tuple"
        }
      ],
      "stateMutability": "view",
      "type": "function",
      "constant": true
    },
    {
      "inputs": [],
      "name": "allTokens",
      "outputs": [
        {
          "components": [
            {
              "internalType": "uint256",
              "name": "token_uid",
              "type": "uint256"
            }
          ],
          "internalType": "struct TokenInfo[]",
          "name": "",
          "type": "tuple[]"
        }
      ],
      "stateMutability": "view",
      "type": "function",
      "constant": true
    },
    {
      "inputs": [
        {
          "internalType": "uint128",
          "name": "tidx",
          "type": "uint128"
        },
        {
          "internalType": "uint128",
          "name": "amount",
          "type": "uint128"
        },
        {
          "internalType": "uint256",
          "name": "l1recipent",
          "type": "uint256"
        }
      ],
      "name": "_withdraw",
      "outputs": [],
      "stateMutability": "nonpayable",
      "type": "function"
    },
    {
      "inputs": [
        {
          "internalType": "address",
          "name": "txaddr",
          "type": "address"
        }
      ],
      "name": "addTransaction",
      "outputs": [
        {
          "internalType": "uint256",
          "name": "",
          "type": "uint256"
        }
      ],
      "stateMutability": "nonpayable",
      "type": "function"
    },
    {
      "inputs": [
        {
          "internalType": "address",
          "name": "vaddr",
          "type": "address"
        }
      ],
      "name": "addVerifier",
      "outputs": [
        {
          "internalType": "uint256",
          "name": "",
          "type": "uint256"
        }
      ],
      "stateMutability": "nonpayable",
      "type": "function"
    },
    {
      "inputs": [
        {
          "internalType": "address",
          "name": "token",
          "type": "address"
        },
        {
          "internalType": "uint256",
          "name": "amount",
          "type": "uint256"
        },
        {
          "internalType": "uint256",
          "name": "l2account",
          "type": "uint256"
        }
      ],
      "name": "deposit",
      "outputs": [],
      "stateMutability": "nonpayable",
      "type": "function"
    },
    {
      "inputs": [
        {
          "internalType": "uint256",
          "name": "l2account",
          "type": "uint256"
        }
      ],
      "name": "nonceOf",
      "outputs": [
        {
          "internalType": "uint256",
          "name": "",
          "type": "uint256"
        }
      ],
      "stateMutability": "view",
      "type": "function",
      "constant": true
    },
    {
      "inputs": [
        {
          "internalType": "uint256",
          "name": "l2account",
          "type": "uint256"
        },
        {
          "internalType": "uint256[]",
          "name": "tx_data",
          "type": "uint256[]"
        },
        {
          "internalType": "uint256[]",
          "name": "verify_data",
          "type": "uint256[]"
        },
        {
          "internalType": "uint256",
          "name": "vid",
          "type": "uint256"
        },
        {
          "internalType": "uint256",
          "name": "nonce",
          "type": "uint256"
        },
        {
          "internalType": "uint256",
          "name": "rid",
          "type": "uint256"
        }
      ],
      "name": "verify",
      "outputs": [],
      "stateMutability": "nonpayable",
      "type": "function"
    }
  ],
  "bytecode": "0x60806040523480156200001157600080fd5b5060405162002df438038062002df4833981810160405281019062000037919062000277565b8063ffffffff166000800160006101000a8154816fffffffffffffffffffffffffffffffff02191690836fffffffffffffffffffffffffffffffff16021790555033600060010160006101000a81548173ffffffffffffffffffffffffffffffffffffffff021916908373ffffffffffffffffffffffffffffffffffffffff1602179055507f151399c724e17408a7a43cdadba2fc000da9339c56e4d49c6cdee6c4356fbc68600060020181905550620000f860006200013960201b60201c565b506200010b60006200013960201b60201c565b506200011e60006200013960201b60201c565b506200013160006200013960201b60201c565b5050620003c0565b6000806006805490509050600660405180602001604052808581525090806001815401808255809150506001900390600052602060002001600090919091909150600082015181600001555050600181620001959190620002fd565b6000800160106101000a81548163ffffffff021916908363ffffffff160217905550600015156007600085815260200190815260200160002060009054906101000a900460ff1615151462000221576040517f08c379a00000000000000000000000000000000000000000000000000000000081526004016200021890620002ca565b60405180910390fd5b60008314620002575760016007600085815260200190815260200160002060006101000a81548160ff0219169083151502179055505b80915050919050565b6000815190506200027181620003a6565b92915050565b6000602082840312156200028a57600080fd5b60006200029a8482850162000260565b91505092915050565b6000620002b2601d83620002ec565b9150620002bf826200037d565b602082019050919050565b60006020820190508181036000830152620002e581620002a3565b9050919050565b600082825260208201905092915050565b60006200030a826200033e565b915062000317836200033e565b92508263ffffffff038211156200033357620003326200034e565b5b828201905092915050565b600063ffffffff82169050919050565b7f4e487b7100000000000000000000000000000000000000000000000000000000600052601160045260246000fd5b7f416464546f6b656e3a20546f6b656e20416c7265616479204578697374000000600082015250565b620003b1816200033e565b8114620003bd57600080fd5b50565b612a2480620003d06000396000f3fe608060405234801561001057600080fd5b506004361061009e5760003560e01c80636ff97f1d116100665780636ff97f1d1461016b5780639000b3d614610189578063b65ce8d5146101b9578063bcb8afc5146101e9578063ede7cebd146102055761009e565b806307ae1e87146100a35780630efe6a8b146100bf578063179d375c146100db5780634186640d1461010b5780636ccbae5f1461013b575b600080fd5b6100bd60048036038101906100b89190611a15565b610223565b005b6100d960048036038101906100d49190611869565b61074e565b005b6100f560048036038101906100f091906119c3565b6109b2565b6040516101029190612364565b60405180910390f35b6101256004803603810190610120919061194b565b610ad3565b60405161013291906122c0565b60405180910390f35b610155600480360381019061015091906119c3565b610b56565b60405161016291906122db565b60405180910390f35b610173610b73565b6040516101809190612071565b60405180910390f35b6101a3600480360381019061019e9190611840565b610bd8565b6040516101b091906122db565b60405180910390f35b6101d360048036038101906101ce9190611840565b610c58565b6040516101e091906122db565b60405180910390f35b61020360048036038101906101fe9190611974565b610cd8565b005b61020d610e1b565b60405161021a91906122a5565b60405180910390f35b600085511415610268576040517f08c379a000000000000000000000000000000000000000000000000000000000815260040161025f90612265565b60405180910390fd5b6001816102759190612504565b600060030154146102bb576040517f08c379a00000000000000000000000000000000000000000000000000000000081526004016102b290612285565b60405180910390fd5b6001600060030160008282546102d19190612474565b92505081905550600080600201549050600060026000886040516020016102f9929190611fce565b6040516020818303038152906040526040516103159190611f9c565b602060405180830381855afa158015610332573d6000803e3d6000fd5b5050506040513d601f19601f820116820180604052508101906103559190611922565b60001c9050600086600b81518110610396577f4e487b7100000000000000000000000000000000000000000000000000000000600052603260045260246000fd5b6020026020010151905086600a815181106103da577f4e487b7100000000000000000000000000000000000000000000000000000000600052603260045260246000fd5b60200260200101518314610423576040517f08c379a000000000000000000000000000000000000000000000000000000000815260040161041a90612185565b60405180910390fd5b8660098151811061045d577f4e487b7100000000000000000000000000000000000000000000000000000000600052603260045260246000fd5b60200260200101516080886008815181106104a1577f4e487b7100000000000000000000000000000000000000000000000000000000600052603260045260246000fd5b6020026020010151901b6104b59190612474565b82146104f6576040517f08c379a00000000000000000000000000000000000000000000000000000000081526004016104ed90612165565b60405180910390fd5b600061050187610f35565b905060008173ffffffffffffffffffffffffffffffffffffffff1663b91b0b838a6040518263ffffffff1660e01b815260040161053e9190612093565b602060405180830381600087803b15801561055857600080fd5b505af115801561056c573d6000803e3d6000fd5b505050506040513d601f19601f8201168201806040525081019061059091906118f9565b905060011515811515146105d9576040517f08c379a00000000000000000000000000000000000000000000000000000000081526004016105d0906121a5565b60405180910390fd5b60005b8a518110156106fd5760008b8281518110610620577f4e487b7100000000000000000000000000000000000000000000000000000000600052603260045260246000fd5b602002602001015190506001826106379190612474565b91506000610644826110a2565b905060008173ffffffffffffffffffffffffffffffffffffffff1663d46e69278f866040518363ffffffff1660e01b81526004016106839291906120b5565b60006040518083038186803b15801561069b57600080fd5b505afa1580156106af573d6000803e3d6000fd5b505050506040513d6000823e3d601f19601f820116820180604052508101906106d891906118b8565b90506106e38161120f565b600860ff16846106f39190612474565b93505050506105dc565b836000600201819055507fbd839b7672235005c35f9c18d40fb67d8a10ebe332a815c4c2f1d1cd5a52b4218c886040516107389291906122f6565b60405180910390a1505050505050505050505050565b6000839050600061075e85611404565b9050600115156007600083815260200190815260200160002060009054906101000a900460ff161515146107c7576040517f08c379a00000000000000000000000000000000000000000000000000000000081526004016107be906121c5565b60405180910390fd5b60008273ffffffffffffffffffffffffffffffffffffffff166370a08231336040518263ffffffff1660e01b81526004016108029190611ff6565b60206040518083038186803b15801561081a57600080fd5b505afa15801561082e573d6000803e3d6000fd5b505050506040513d601f19601f8201168201806040525081019061085291906119ec565b905084811015610897576040517f08c379a000000000000000000000000000000000000000000000000000000000815260040161088e90612105565b60405180910390fd5b8273ffffffffffffffffffffffffffffffffffffffff166323b872dd3330886040518463ffffffff1660e01b81526004016108d493929190612011565b602060405180830381600087803b1580156108ee57600080fd5b505af1158015610902573d6000803e3d6000fd5b505050506040513d601f19601f8201168201806040525081019061092691906118f9565b50600160096000868152602001908152602001600020600082825461094b9190612474565b925050819055507f9b776d199f09c774f5b205c9bc2ac6f40d508c347aaea919867eeaf06ebef0e961097c87611404565b858760096000898152602001908152602001600020546040516109a2949392919061231f565b60405180910390a1505050505050565b6000806006805490509050600660405180602001604052808581525090806001815401808255809150506001900390600052602060002001600090919091909150600082015181600001555050600181610a0c91906124ca565b6000800160106101000a81548163ffffffff021916908363ffffffff160217905550600015156007600085815260200190815260200160002060009054906101000a900460ff16151514610a95576040517f08c379a0000000000000000000000000000000000000000000000000000000008152600401610a8c90612205565b60405180910390fd5b60008314610aca5760016007600085815260200190815260200160002060006101000a81548160ff0219169083151502179055505b80915050919050565b610adb611619565b610ae482611465565b6006826fffffffffffffffffffffffffffffffff1681548110610b30577f4e487b7100000000000000000000000000000000000000000000000000000000600052603260045260246000fd5b906000526020600020016040518060200160405290816000820154815250509050919050565b600060096000838152602001908152602001600020549050919050565b60606006805480602002602001604051908101604052809291908181526020016000905b82821015610bcf5783829060005260206000200160405180602001604052908160008201548152505081526020019060010190610b97565b50505050905090565b6000610be26114d6565b600060058054905090506005839080600181540180825580915050600190039060005260206000200160009091909190916101000a81548173ffffffffffffffffffffffffffffffffffffffff021916908373ffffffffffffffffffffffffffffffffffffffff16021790555080915050919050565b6000610c626114d6565b600060048054905090506004839080600181540180825580915050600190039060005260206000200160009091909190916101000a81548173ffffffffffffffffffffffffffffffffffffffff021916908373ffffffffffffffffffffffffffffffffffffffff16021790555080915050919050565b6000610ce38461156b565b9050610cee816115d7565b8015610cff5750610cfe826115d7565b5b15610e155760008190506000839050600073ffffffffffffffffffffffffffffffffffffffff168173ffffffffffffffffffffffffffffffffffffffff161415610d7e576040517f08c379a0000000000000000000000000000000000000000000000000000000008152600401610d7590612145565b60405180910390fd5b60008290508073ffffffffffffffffffffffffffffffffffffffff1663a9059cbb83886040518363ffffffff1660e01b8152600401610dbe929190612048565b602060405180830381600087803b158015610dd857600080fd5b505af1158015610dec573d6000803e3d6000fd5b505050506040513d601f19601f82011682018060405250810190610e1091906118f9565b505050505b50505050565b610e2361162c565b60006040518060c00160405290816000820160009054906101000a90046fffffffffffffffffffffffffffffffff166fffffffffffffffffffffffffffffffff166fffffffffffffffffffffffffffffffff1681526020016000820160109054906101000a900463ffffffff1663ffffffff1663ffffffff1681526020016000820160149054906101000a900463ffffffff1663ffffffff1663ffffffff1681526020016001820160009054906101000a900473ffffffffffffffffffffffffffffffffffffffff1673ffffffffffffffffffffffffffffffffffffffff1673ffffffffffffffffffffffffffffffffffffffff16815260200160028201548152602001600382015481525050905090565b60008082604051602001610f499190611fb3565b604051602081830303815290604052905080601f81518110610f94577f4e487b7100000000000000000000000000000000000000000000000000000000600052603260045260246000fd5b602001015160f81c60f81b60f81c60ff1660058054905011610feb576040517f08c379a0000000000000000000000000000000000000000000000000000000008152600401610fe2906120e5565b60405180910390fd5b600581601f81518110611027577f4e487b7100000000000000000000000000000000000000000000000000000000600052603260045260246000fd5b602001015160f81c60f81b60f81c60ff168154811061106f577f4e487b7100000000000000000000000000000000000000000000000000000000600052603260045260246000fd5b9060005260206000200160009054906101000a900473ffffffffffffffffffffffffffffffffffffffff16915050919050565b600080826040516020016110b69190611fb3565b604051602081830303815290604052905080601f81518110611101577f4e487b7100000000000000000000000000000000000000000000000000000000600052603260045260246000fd5b602001015160f81c60f81b60f81c60ff1660048054905011611158576040517f08c379a000000000000000000000000000000000000000000000000000000000815260040161114f906120e5565b60405180910390fd5b600481601f81518110611194577f4e487b7100000000000000000000000000000000000000000000000000000000600052603260045260246000fd5b602001015160f81c60f81b60f81c60ff16815481106111dc577f4e487b7100000000000000000000000000000000000000000000000000000000600052603260045260246000fd5b9060005260206000200160009054906101000a900473ffffffffffffffffffffffffffffffffffffffff16915050919050565b60005b8151811015611400576000828281518110611256577f4e487b7100000000000000000000000000000000000000000000000000000000600052603260045260246000fd5b60200260200101519050600160ff168114156113bf576004826112799190612474565b835110156112bc576040517f08c379a00000000000000000000000000000000000000000000000000000000081526004016112b390612245565b60405180910390fd5b6113ab836001846112cd9190612474565b81518110611304577f4e487b7100000000000000000000000000000000000000000000000000000000600052603260045260246000fd5b60200260200101518460028561131a9190612474565b81518110611351577f4e487b7100000000000000000000000000000000000000000000000000000000600052603260045260246000fd5b6020026020010151856003866113679190612474565b8151811061139e577f4e487b7100000000000000000000000000000000000000000000000000000000600052603260045260246000fd5b6020026020010151610cd8565b6004826113b89190612474565b91506113fa565b6040517f08c379a00000000000000000000000000000000000000000000000000000000081526004016113f1906121e5565b60405180910390fd5b50611212565b5050565b600060a06000800160009054906101000a90046fffffffffffffffffffffffffffffffff166fffffffffffffffffffffffffffffffff16901b8273ffffffffffffffffffffffffffffffffffffffff1661145e9190612474565b9050919050565b6000800160109054906101000a900463ffffffff1663ffffffff16816fffffffffffffffffffffffffffffffff16106114d3576040517f08c379a00000000000000000000000000000000000000000000000000000000081526004016114ca90612225565b60405180910390fd5b50565b3373ffffffffffffffffffffffffffffffffffffffff16600060010160009054906101000a900473ffffffffffffffffffffffffffffffffffffffff1673ffffffffffffffffffffffffffffffffffffffff1614611569576040517f08c379a000000000000000000000000000000000000000000000000000000000815260040161156090612125565b60405180910390fd5b565b600061157682611465565b6006826fffffffffffffffffffffffffffffffff16815481106115c2577f4e487b7100000000000000000000000000000000000000000000000000000000600052603260045260246000fd5b90600052602060002001600001549050919050565b60008060000160009054906101000a90046fffffffffffffffffffffffffffffffff166fffffffffffffffffffffffffffffffff1660a083901c149050919050565b6040518060200160405280600081525090565b6040518060c0016040528060006fffffffffffffffffffffffffffffffff168152602001600063ffffffff168152602001600063ffffffff168152602001600073ffffffffffffffffffffffffffffffffffffffff16815260200160008152602001600081525090565b60006116a96116a4846123a4565b61237f565b905080838252602082019050828560208602820111156116c857600080fd5b60005b858110156116f857816116de8882611816565b8452602084019350602083019250506001810190506116cb565b5050509392505050565b6000611715611710846123a4565b61237f565b9050808382526020820190508285602086028201111561173457600080fd5b60005b85811015611764578161174a888261182b565b845260208401935060208301925050600181019050611737565b5050509392505050565b60008135905061177d8161297b565b92915050565b600082601f83011261179457600080fd5b81356117a4848260208601611696565b91505092915050565b600082601f8301126117be57600080fd5b81516117ce848260208601611702565b91505092915050565b6000815190506117e681612992565b92915050565b6000815190506117fb816129a9565b92915050565b600081359050611810816129c0565b92915050565b600081359050611825816129d7565b92915050565b60008151905061183a816129d7565b92915050565b60006020828403121561185257600080fd5b60006118608482850161176e565b91505092915050565b60008060006060848603121561187e57600080fd5b600061188c8682870161176e565b935050602061189d86828701611816565b92505060406118ae86828701611816565b9150509250925092565b6000602082840312156118ca57600080fd5b600082015167ffffffffffffffff8111156118e457600080fd5b6118f0848285016117ad565b91505092915050565b60006020828403121561190b57600080fd5b6000611919848285016117d7565b91505092915050565b60006020828403121561193457600080fd5b6000611942848285016117ec565b91505092915050565b60006020828403121561195d57600080fd5b600061196b84828501611801565b91505092915050565b60008060006060848603121561198957600080fd5b600061199786828701611801565b93505060206119a886828701611801565b92505060406119b986828701611816565b9150509250925092565b6000602082840312156119d557600080fd5b60006119e384828501611816565b91505092915050565b6000602082840312156119fe57600080fd5b6000611a0c8482850161182b565b91505092915050565b60008060008060008060c08789031215611a2e57600080fd5b6000611a3c89828a01611816565b965050602087013567ffffffffffffffff811115611a5957600080fd5b611a6589828a01611783565b955050604087013567ffffffffffffffff811115611a8257600080fd5b611a8e89828a01611783565b9450506060611a9f89828a01611816565b9350506080611ab089828a01611816565b92505060a0611ac189828a01611816565b9150509295509295509295565b6000611ada8383611ee4565b60208301905092915050565b6000611af28383611f3a565b60208301905092915050565b6000611b0a8383611f58565b60208301905092915050565b611b1f81612538565b82525050565b611b2e81612538565b82525050565b6000611b3f826123f0565b611b49818561242b565b9350611b54836123d0565b8060005b83811015611b85578151611b6c8882611ace565b9750611b7783612411565b925050600181019050611b58565b5085935050505092915050565b6000611b9d826123fb565b611ba7818561243c565b9350611bb2836123e0565b8060005b83811015611be3578151611bca8882611ae6565b9750611bd58361241e565b925050600181019050611bb6565b5085935050505092915050565b6000611bfb826123fb565b611c05818561244d565b9350611c10836123e0565b8060005b83811015611c41578151611c288882611afe565b9750611c338361241e565b925050600181019050611c14565b5085935050505092915050565b6000611c5982612406565b611c638185612458565b9350611c738185602086016125c8565b80840191505092915050565b6000611c8c601c83612463565b9150611c97826126a5565b602082019050919050565b6000611caf601483612463565b9150611cba826126ce565b602082019050919050565b6000611cd2601883612463565b9150611cdd826126f7565b602082019050919050565b6000611cf5601c83612463565b9150611d0082612720565b602082019050919050565b6000611d18602183612463565b9150611d2382612749565b604082019050919050565b6000611d3b602083612463565b9150611d4682612798565b602082019050919050565b6000611d5e601e83612463565b9150611d69826127c1565b602082019050919050565b6000611d81601883612463565b9150611d8c826127ea565b602082019050919050565b6000611da4602183612463565b9150611daf82612813565b604082019050919050565b6000611dc7601d83612463565b9150611dd282612862565b602082019050919050565b6000611dea601783612463565b9150611df58261288b565b602082019050919050565b6000611e0d602183612463565b9150611e18826128b4565b604082019050919050565b6000611e30602583612463565b9150611e3b82612903565b604082019050919050565b6000611e53601d83612463565b9150611e5e82612952565b602082019050919050565b60c082016000820151611e7f6000850182611f1c565b506020820151611e926020850182611f7e565b506040820151611ea56040850182611f7e565b506060820151611eb86060850182611b16565b506080820151611ecb6080850182611f3a565b5060a0820151611ede60a0850182611f3a565b50505050565b602082016000820151611efa6000850182611f3a565b50505050565b602082016000820151611f166000850182611f3a565b50505050565b611f2581612560565b82525050565b611f34816125b6565b82525050565b611f438161259c565b82525050565b611f528161259c565b82525050565b611f618161259c565b82525050565b611f78611f738261259c565b61262c565b82525050565b611f87816125a6565b82525050565b611f96816125a6565b82525050565b6000611fa88284611c4e565b915081905092915050565b6000611fbf8284611f67565b60208201915081905092915050565b6000611fda8285611f67565b602082019150611fea8284611bf0565b91508190509392505050565b600060208201905061200b6000830184611b25565b92915050565b60006060820190506120266000830186611b25565b6120336020830185611b25565b6120406040830184611f49565b949350505050565b600060408201905061205d6000830185611b25565b61206a6020830184611f2b565b9392505050565b6000602082019050818103600083015261208b8184611b34565b905092915050565b600060208201905081810360008301526120ad8184611b92565b905092915050565b600060408201905081810360008301526120cf8185611b92565b90506120de6020830184611f49565b9392505050565b600060208201905081810360008301526120fe81611c7f565b9050919050565b6000602082019050818103600083015261211e81611ca2565b9050919050565b6000602082019050818103600083015261213e81611cc5565b9050919050565b6000602082019050818103600083015261215e81611ce8565b9050919050565b6000602082019050818103600083015261217e81611d0b565b9050919050565b6000602082019050818103600083015261219e81611d2e565b9050919050565b600060208201905081810360008301526121be81611d51565b9050919050565b600060208201905081810360008301526121de81611d74565b9050919050565b600060208201905081810360008301526121fe81611d97565b9050919050565b6000602082019050818103600083015261221e81611dba565b9050919050565b6000602082019050818103600083015261223e81611ddd565b9050919050565b6000602082019050818103600083015261225e81611e00565b9050919050565b6000602082019050818103600083015261227e81611e23565b9050919050565b6000602082019050818103600083015261229e81611e46565b9050919050565b600060c0820190506122ba6000830184611e69565b92915050565b60006020820190506122d56000830184611f00565b92915050565b60006020820190506122f06000830184611f49565b92915050565b600060408201905061230b6000830185611f49565b6123186020830184611f49565b9392505050565b60006080820190506123346000830187611f49565b6123416020830186611f49565b61234e6040830185611f49565b61235b6060830184611f49565b95945050505050565b60006020820190506123796000830184611f8d565b92915050565b600061238961239a565b905061239582826125fb565b919050565b6000604051905090565b600067ffffffffffffffff8211156123bf576123be612665565b5b602082029050602081019050919050565b6000819050602082019050919050565b6000819050602082019050919050565b600081519050919050565b600081519050919050565b600081519050919050565b6000602082019050919050565b6000602082019050919050565b600082825260208201905092915050565b600082825260208201905092915050565b600081905092915050565b600081905092915050565b600082825260208201905092915050565b600061247f8261259c565b915061248a8361259c565b9250827fffffffffffffffffffffffffffffffffffffffffffffffffffffffffffffffff038211156124bf576124be612636565b5b828201905092915050565b60006124d5826125a6565b91506124e0836125a6565b92508263ffffffff038211156124f9576124f8612636565b5b828201905092915050565b600061250f8261259c565b915061251a8361259c565b92508282101561252d5761252c612636565b5b828203905092915050565b60006125438261257c565b9050919050565b60008115159050919050565b6000819050919050565b60006fffffffffffffffffffffffffffffffff82169050919050565b600073ffffffffffffffffffffffffffffffffffffffff82169050919050565b6000819050919050565b600063ffffffff82169050919050565b60006125c182612560565b9050919050565b60005b838110156125e65780820151818401526020810190506125cb565b838111156125f5576000848401525b50505050565b61260482612694565b810181811067ffffffffffffffff8211171561262357612622612665565b5b80604052505050565b6000819050919050565b7f4e487b7100000000000000000000000000000000000000000000000000000000600052601160045260246000fd5b7f4e487b7100000000000000000000000000000000000000000000000000000000600052604160045260246000fd5b6000601f19601f8301169050919050565b7f43616c6c20496e666f20696e646578206f7574206f6620626f756e6400000000600082015250565b7f496e73756666656369656e742042616c616e6365000000000000000000000000600082015250565b7f417574686f726974793a20526571756972652041646d696e0000000000000000600082015250565b7f576974686472617720746f20746865207a65726f206164647265737300000000600082015250565b7f496e636f6e7374616e743a20536861206461746120696e636f6e73697374616e60008201527f7400000000000000000000000000000000000000000000000000000000000000602082015250565b7f496e636f6e7374616e743a204d65726b6c6520726f6f74206469736d61746368600082015250565b7f5a4b5665726966793a207a6b736e61726b20636865636b206661696c65640000600082015250565b7f4465706f7369743a20556e747261636b656420546f6b656e0000000000000000600082015250565b7f536964654566666563743a20556e6b6e6f776e53696465456666656374436f6460008201527f6500000000000000000000000000000000000000000000000000000000000000602082015250565b7f416464546f6b656e3a20546f6b656e20416c7265616479204578697374000000600082015250565b7f4f75744f66426f756e643a20546f6b656e20496e646578000000000000000000600082015250565b7f57697468647261773a20496e73756666696369656e7420617267206e756d626560008201527f7200000000000000000000000000000000000000000000000000000000000000602082015250565b7f5665726966793a20496e73756666696369656e742064656c7461206f7065726160008201527f74696f6e73000000000000000000000000000000000000000000000000000000602082015250565b7f5665726966793a20556e65787065637465642052657175657374204964000000600082015250565b61298481612538565b811461298f57600080fd5b50565b61299b8161254a565b81146129a657600080fd5b50565b6129b281612556565b81146129bd57600080fd5b50565b6129c981612560565b81146129d457600080fd5b50565b6129e08161259c565b81146129eb57600080fd5b5056fea2646970667358221220b24dc5c5eef9efc2c2801e571d24d5fcb0e2b41608469da81af2ba35e45d945c64736f6c63430008040033",
  "immutableReferences": {},
  "source": "// SPDX-License-Identifier: UNLICENSED\npragma solidity ^0.8.0;\nimport \"@openzeppelin/contracts/token/ERC20/ERC20.sol\";\nimport \"./Verifier.sol\";\nimport \"./Transaction.sol\";\nimport \"./MKT.sol\";\ncontract Bridge {\n\n  event Deposit(uint256 l1token, uint256 l2account, uint256 amount, uint256 nonce);\n  event WithDraw(uint256 l1account, uint256 l2account, uint256 amount, uint256 nonce);\n  event SwapAck(uint256 l2account, uint256 rid);\n\n  BridgeInfo _bridge_info;\n\n  Transaction[] private transactions;\n  DelphinusVerifier[] private verifiers;\n\n  TokenInfo[] private _tokens;\n  mapping (uint256 => bool) private _tmap;\n\n  address private _owner;\n\n  mapping (uint256 => uint256) private _nonce;\n\n\n  constructor(uint32 chain_id) {\n    _bridge_info.chain_id = chain_id;\n    _bridge_info.owner = msg.sender;\n    _bridge_info.merkle_root = 0x151399c724e17408a7a43cdadba2fc000da9339c56e4d49c6cdee6c4356fbc68;\n    addToken(0);\n    addToken(0);\n    addToken(0);\n    addToken(0);\n  }\n\n  /* Make sure token index is sain */\n  function token_index_check(uint128 tidx) private view {\n    require(tidx < _bridge_info.amount_token, \"OutOfBound: Token Index\");\n  }\n\n  /* Make sure token index is sain and return token uid */\n  function get_token_uid(uint128 tidx) private view returns (uint256){\n    token_index_check(tidx);\n    return _tokens[tidx].token_uid;\n  }\n\n  function ensure_admin() private view {\n    require(_bridge_info.owner == msg.sender, \"Authority: Require Admin\");\n  }\n\n  function getBridgeInfo() public view returns (BridgeInfo memory) {\n    return _bridge_info;\n  }\n\n  function addToken(uint256 token) public returns (uint32) {\n    //ensure_admin();\n    uint32 cursor = uint32(_tokens.length);\n    _tokens.push(TokenInfo(token));\n    _bridge_info.amount_token = cursor + 1;\n    require(_tmap[token] == false, \"AddToken: Token Already Exist\");\n    if (token != 0) {\n        _tmap[token] = true;\n    }\n    return cursor;\n  }\n\n  function getToken(uint128 tidx) public view returns (TokenInfo memory) {\n    token_index_check(tidx);\n    return _tokens[tidx];\n  }\n\n  function allTokens() public view returns (TokenInfo[] memory) {\n    return _tokens;\n  }\n\n  function _withdraw(uint128 tidx, uint128 amount, uint256 l1recipent) public {\n    uint256 tokenid = get_token_uid(tidx);\n    if (_is_local(tokenid) && _is_local(l1recipent)) {\n      address token = address(uint160(tokenid));\n      address recipent = address(uint160(l1recipent));\n\n      // Sanitity checks\n      require(recipent!= address(0), \"Withdraw to the zero address\");\n\n      // transfer amount back to recipent\n      IERC20 underlying_token = IERC20(token);\n      underlying_token.transfer(recipent, amount);\n    }\n  }\n\n  function addTransaction(address txaddr) public returns (uint) {\n    ensure_admin();\n    uint cursor = transactions.length;\n    transactions.push(Transaction(txaddr));\n    return cursor;\n  }\n\n  function addVerifier(address vaddr) public returns (uint) {\n    ensure_admin();\n    uint cursor = verifiers.length;\n    verifiers.push(DelphinusVerifier(vaddr));\n    return cursor;\n  }\n\n\n  function _get_transaction(uint256 call_info) private view returns(Transaction) {\n    bytes memory info = abi.encodePacked(call_info);\n    require(transactions.length > uint8(info[31]), \"Call Info index out of bound\");\n    return transactions[uint8(info[31])];\n  }\n\n  function _get_verifier(uint256 call_info) private view returns(DelphinusVerifier) {\n    bytes memory info = abi.encodePacked(call_info);\n    require(verifiers.length > uint8(info[31]), \"Call Info index out of bound\");\n    return verifiers[uint8(info[31])];\n  }\n\n  /* encode the l1 address into token_uid */\n  function _l1_address(address account) private view returns (uint256) {\n    return (uint256(uint160(account))) + (uint256(_bridge_info.chain_id) << 160);\n  }\n\n  function _is_local(uint256 l1address) private view returns (bool) {\n    return ((l1address >> 160) == (uint256(_bridge_info.chain_id)));\n  }\n\n  function _get_delta_code(uint256 call_info) private pure returns(uint8) {\n    bytes memory info = abi.encodePacked(call_info);\n    return uint8(info[0]);\n  }\n\n\n  function deposit(address token, uint256 amount, uint256 l2account) public {\n    IERC20 underlying_token = IERC20(token);\n    uint256 token_uid = _l1_address(token);\n    require(_tmap[token_uid] == true, \"Deposit: Untracked Token\");\n    uint256 balance = underlying_token.balanceOf(msg.sender);\n    require(balance >= amount, \"Insuffecient Balance\");\n    underlying_token.transferFrom(msg.sender, address(this), amount);\n    _nonce[l2account] += 1;\n    emit Deposit(_l1_address(token), l2account, amount , _nonce[l2account]);\n  }\n\n  function nonceOf(uint256 l2account) public view returns(uint256) {\n    return _nonce[l2account];\n  }\n\n  /*\n   * @dev side effect encoded in the update function\n   * deltas = [| opcode; args |]\n   */\n  function _update_state(uint256[] memory deltas) private {\n    uint cursor = 0;\n    while (cursor < deltas.length) {\n      uint delta_code = deltas[cursor];\n      if (delta_code == _WITHDRAW) {\n        require(deltas.length >= cursor + 4, \"Withdraw: Insufficient arg number\");\n        _withdraw(uint128(deltas[cursor+1]), uint128(deltas[cursor+2]), deltas[cursor+3]);\n        cursor = cursor + 4;\n      } else {\n        revert(\"SideEffect: UnknownSideEffectCode\");\n      }\n    }\n  }\n\n  /*\n   * @dev Data encodes the delta functions with there verification in reverse order\n   * data = opcode args; opcode' args'; ....\n   */\n  function verify(uint256 l2account,\n      uint256[] memory tx_data,\n      uint256[] memory verify_data, // [8]: old root, [9]: new root, [10]: sha_low, [11]: sha_high\n      uint256 vid,\n      uint256 nonce,\n      uint256 rid\n    ) public {\n    //require(_nonce[l2account] == nonce, \"Verify: Nonce does not match!\");\n    require (tx_data.length != 0, \"Verify: Insufficient delta operations\");\n    require (_bridge_info.rid == rid-1, \"Verify: Unexpected Request Id\");\n    _bridge_info.rid += 1;\n    uint256 merkle_root = _bridge_info.merkle_root;\n    uint256 sha_pack = uint256(sha256(abi.encodePacked(uint256(0), tx_data)));\n\n    uint256 new_merkle_root = verify_data[11];\n    require(merkle_root == verify_data[10], \"Inconstant: Merkle root dismatch\");\n    require(sha_pack == (verify_data[8] << 128) + verify_data[9], \"Inconstant: Sha data inconsistant\");\n\n    /* Perform zksnark check */\n    DelphinusVerifier verifier = _get_verifier(vid);\n    bool v = verifier.verifyDelphinusTx(verify_data);\n    require(v == true, \"ZKVerify: zksnark check failed\");\n\n    /* Perform transactions (withdraw ...) and update merkle root */\n    uint cursor = 0;\n    while (cursor < tx_data.length) {\n      uint256 op_code = tx_data[cursor];\n      cursor += 1;\n      Transaction transaction = _get_transaction(op_code);\n      uint256[] memory update = transaction.sideEffect(tx_data, cursor);\n      _update_state(update);\n      cursor += _TX_NUM_ARGS;\n    }\n    _bridge_info.merkle_root = new_merkle_root;\n    emit SwapAck(l2account, rid);\n  }\n\n}\n",
  "sourcePath": "/Users/leyingan/delphinus/delphinus-lerna/packages/solidity/contracts/bridge.sol",
  "compiler": {
    "name": "solc",
    "version": "0.8.4+commit.c7e474f2.Darwin.appleclang"
  },
  "schemaVersion": "3.4.3",
  "updatedAt": "2021-10-12T14:55:37.125Z",
  "networkType": "ethereum",
  "devdoc": {
    "kind": "dev",
    "methods": {},
    "version": 1
  },
  "userdoc": {
    "kind": "user",
    "methods": {},
    "version": 1
  }
}